S00F00007370696C6364312E7372656365
S11300000C942A000C943F000C943F000C943F0085
S11300100C943F000C943F000C943F000C943F0060
S11300200C943F000C943F000C943F000C943F0050
S11300300C943F000C943F000C943F000C943F0040
S11300400C943F000C943F000C943F000C943F0030
S11300500C943F0011241FBECFE5D4E0DEBFCDBF1A
S113006010E0A0E6B0E0EAEEF1E002C005900D92E7
S1130070AE36B107D9F70E94A3000C94F3000C9498
S1130080000082BB84E085BB8FE99FE00197F1F714
S113009000C0000015BA8FE097E20197F1F700C0A5
S11300A0000008958FEF81BB84BB8FE39CE9019727
S11300B0F1F700C0000088E30E9441008CE00E9438
S11300C0410086E00E94410081E00E94410080E8F6
S11300D00E9441000895DC012C912223B1F0FC011F
S11300E0319695E081E022BB95BBAFE9BFE0119763
S11300F0F1F700C0000085BBAFE0B7E21197F1F75C
S113010000C0000021912111EECF089582BB85E04B
S113011085BB8FE99FE00197F1F700C0000081E003
S113012085BB8FE097E20197F1F700C000000895C6
S1130130BE9A87B38F7487BB80E48DB90895779B8B
S1130140FECF8FB10895CF93DF93CDB7DEB7279756
S11301500FB6F894DEBF0FBECDBF0E9498000E9478
S1130160520080E690E00E946B00FE01319687E029
S1130170DF011D928A95E9F70E949F008130E1F723
S1130180FE0131966F01AE2EBD2C712C812C0F2EE9
S1130190F7E09F2EF02DEA2CFB2C072D182D0E9442
S11301A09F00D7018D937D0198012F5F3F4F8823D6
S11301B011F08901F4CF80EC0E9441001016110661
S11301C064F40C0D1D1DEA2CFB2CF70181917F01B9
S11301D00E948600E016F106C1F7D601E92D1D92B2
S10D01E0EA95E9F7D8CFF894FFCFB1
S11101EA536C61766520726563656976650005
S9030000FC
