:020000040000FA
:10000000000000EB240000EB2C008FE2000C90E8D5
:1000100000A08AE000B08BE001704AE20B005AE1D8
:100020000000001A1C0000EB0F00BAE818E04FE2D5
:10003000010013E303F0471013FF2FE10802000053
:10004000180200000030B0E30040B0E30050B0E31D
:100050000060B0E3102052E27800A128FCFFFF8A84
:10006000822EB0E13000A128003081451EFF2FE133
:1000700001C08FE21CFF2FE11FB5059886460FBC1B
:10008000009C02B07047000001C08FE21CFF2FE10E
:1000900030B47546AE4630BC70470000440000EBFB
:1000A0000210A0E1F1FFFFEB1CC09FE50FC08CE048
:1000B00001001CE30DE08F120FE0A0011CFF2FE1F7
:1000C00001C08FE21CFF2FE100F0A4F8D400000073
:1000D0007847C04603002DE9EAFFFFEB0300BDE8C7
:1000E000510000EB0C009FE50C109FE504209FE5FC
:1000F00008309FE51EFF2FE16000004060040040D3
:100100006000004090009FE5000090E5060880E355
:1001100084109FE5000081E58300A0E3071941E218
:100120000C00C1E56100A0E30000C1E50000A0E310
:100130000400C1E50300A0E30C00C1E51EFF2FE1B0
:100140000000A0E154109FE51410D1E5200011E358
:10015000FBFFFF0A44109FE50000C1E51EFF2FE1F1
:1001600004E02DE50020A0E1010000EA0100D2E456
:10017000F2FFFFEB0000D2E5000050E3FAFFFF1AA8
:1001800004E09DE41EFF2FE1DDFFFFEB10008FE296
:10019000F2FFFFEB0000A0E1FEFFFFEA00C002E07B
:1001A000000001E041540D0A000000007047704754
:1001B000704700000E50A0E1180000EB05E0A0E140
:1001C0000050B0E10D10A0E10A30A0E10700C0E34B
:1001D00000D0A0E160D08DE220402DE9C0FFFFEB10
:1001E0002040BDE80060A0E30070A0E30080A0E331
:1001F00000B0A0E30710C1E305C0A0E1C009ACE86E
:10020000C009ACE8C009ACE8C009ACE801D0A0E185
:100210001EFF2FE10400C046C0462000FFF758FF34
:1002200000009FE51EFF2FE10000004001C08FE2AB
:100230001CFF2FE101491820ABDFFEE7260002007A
:100240001EFF2FE15402000000000040E8040000FF
:040250004400000066
:0400000500000000F7
:00000001FF
