:020000040000FA
:10000000000000EB240000EB2C008FE2000C90E8D5
:1000100000A08AE000B08BE001704AE20B005AE1D8
:100020000000001A1C0000EB0F00BAE818E04FE2D5
:10003000010013E303F0471013FF2FE1E401000078
:10004000F40100000030B0E30040B0E30050B0E342
:100050000060B0E3102052E27800A128FCFFFF8A84
:10006000822EB0E13000A128003081451EFF2FE133
:1000700001C08FE21CFF2FE11FB5059886460FBC1B
:10008000009C02B07047000001C08FE21CFF2FE10E
:1000900030B47546AE4630BC704700003B0000EB04
:1000A0000210A0E1F1FFFFEB1CC09FE50FC08CE048
:1000B00001001CE30DE08F120FE0A0011CFF2FE1F7
:1000C00001C08FE21CFF2FE100F092F86C000000ED
:1000D0007847C04603002DE9EAFFFFEB0300BDE8C7
:1000E000480000EB0C009FE50C109FE504209FE505
:1000F00008309FE51EFF2FE16000004060040040D3
:10010000600000400000A0E3000000EA010080E27F
:1001100068109FE5010050E1FBFFFF3A1EFF2FE151
:100120000020A0E358009FE5080090E5010080E36F
:100130004C109FE5080081E50C0000EA40009FE5B7
:10014000040090E5010080E334109FE5040081E5A0
:10015000EBFFFFEB28009FE50C0090E5010080E33A
:100160001C109FE50C0081E5E5FFFFEB012082E21A
:10017000050052E3F0FFFFBA0000A0E1FEFFFFEA36
:10018000204E0000008002E070477047704700007A
:100190000E50A0E1180000EB05E0A0E10050B0E136
:1001A0000D10A0E10A30A0E10700C0E300D0A0E1FB
:1001B00060D08DE220402DE9C9FFFFEB2040BDE873
:1001C0000060A0E30070A0E30080A0E300B0A0E323
:1001D0000710C1E305C0A0E1C009ACE8C009ACE864
:1001E000C009ACE8C009ACE801D0A0E11EFF2FE1D6
:1001F0000400C046C0462000FFF76AFF00009FE5EC
:100200001EFF2FE10000004001C08FE21CFF2FE124
:1002100001491820ABDFFEE7260002001EFF2FE198
:100220003002000000000040E8040000440000002C
:0400000500000000F7
:00000001FF
