:020000040000FA
:10000000000000EB240000EB2C008FE2000C90E8D5
:1000100000A08AE000B08BE001704AE20B005AE1D8
:100020000000001A1C0000EB0F00BAE818E04FE2D5
:10003000010013E303F0471013FF2FE1000200005B
:10004000100200000030B0E30040B0E30050B0E325
:100050000060B0E3102052E27800A128FCFFFF8A84
:10006000822EB0E13000A128003081451EFF2FE133
:1000700001C08FE21CFF2FE11FB5059886460FBC1B
:10008000009C02B07047000001C08FE21CFF2FE10E
:1000900030B47546AE4630BC70470000420000EBFD
:1000A0000210A0E1F1FFFFEB1CC09FE50FC08CE048
:1000B00001001CE30DE08F120FE0A0011CFF2FE1F7
:1000C00001C08FE21CFF2FE100F0A0F8CC0000007F
:1000D0007847C04603002DE9EAFFFFEB0300BDE8C7
:1000E0004F0000EB0C009FE50C109FE504209FE5FE
:1000F00008309FE51EFF2FE16000004060040040D3
:100100006000004090009FE5000090E5050080E35E
:1001100084109FE5000081E58300A0E30015C1E1A4
:100120000C00C1E56100A0E30000C1E50000A0E310
:100130000400C1E50300A0E30C00C1E51EFF2FE1B0
:100140000000A0E154009FE51400D0E5010010E399
:10015000FBFFFF0A44009FE50000D0E51EFF2FE1F2
:100160000000A0E134109FE51410D1E5200011E358
:10017000FBFFFF0A24109FE50000C1E51EFF2FE1F1
:10018000DFFFFFEB030000EAECFFFFEB0020A0E144
:100190000200A0E1F1FFFFEBFAFFFFEA00C002E07E
:1001A00000C000E070477047704700000E50A0E1AB
:1001B000180000EB05E0A0E10050B0E10D10A0E157
:1001C0000A30A0E10700C0E300D0A0E160D08DE2DA
:1001D00020402DE9C2FFFFEB2040BDE80060A0E316
:1001E0000070A0E30080A0E300B0A0E30710C1E32B
:1001F00005C0A0E1C009ACE8C009ACE8C009ACE8A2
:10020000C009ACE801D0A0E11EFF2FE10400C04608
:10021000C0462000FFF75CFF00009FE51EFF2FE1B6
:100220000000004001C08FE21CFF2FE101491820AF
:10023000ABDFFEE7260002001EFF2FE14C020000AC
:0C02400000000040E80400004400000042
:0400000500000000F7
:00000001FF
